{
  "_format": "hh-sol-artifact-1",
  "contractName": "HouseV2",
  "sourceName": "contracts/HouseV2.sol",
  "abi": [
    {
      "inputs": [],
      "name": "avg",
      "outputs": [
        {
          "internalType": "uint256",
          "name": "",
          "type": "uint256"
        }
      ],
      "stateMutability": "view",
      "type": "function"
    },
    {
      "inputs": [],
      "name": "dec",
      "outputs": [],
      "stateMutability": "nonpayable",
      "type": "function"
    },
    {
      "inputs": [],
      "name": "inc",
      "outputs": [],
      "stateMutability": "nonpayable",
      "type": "function"
    }
  ],
  "bytecode": "0x608060405234801561001057600080fd5b506101bc806100206000396000f3fe608060405234801561001057600080fd5b50600436106100415760003560e01c806331eff40b14610046578063371303c014610064578063b3bcfa821461006e575b600080fd5b61004e610078565b60405161005b91906100bf565b60405180910390f35b61006c61007e565b005b610076610097565b005b60005481565b6000808154809291906100909061010e565b9190505550565b6000808154809291906100a9906100e4565b9190505550565b6100b9816100da565b82525050565b60006020820190506100d460008301846100b0565b92915050565b6000819050919050565b60006100ef826100da565b9150600082141561010357610102610157565b5b600182039050919050565b6000610119826100da565b91507fffffffffffffffffffffffffffffffffffffffffffffffffffffffffffffffff82141561014c5761014b610157565b5b600182019050919050565b7f4e487b7100000000000000000000000000000000000000000000000000000000600052601160045260246000fdfea2646970667358221220245cf313d6a2408fd625bbe9c74608ef137035842b71a8835d2cecd731ca335c64736f6c63430008040033",
  "linkReferences": {},
  "deployedLinkReferences": {}
}